:020000040800F2
:10000000000800203D030008C9340008353300080B
:10001000C534000835160008153900080000000036
:100020000000000000000000000000003D35000856
:100030003916000800000000393500089535000821
:100040005703000857030008570300085703000828
:100050005703000857030008570300085703000818
:100060005703000857030008570300085703000808
:1000700057030008570300085703000857030008F8
:1000800057030008570300085703000857030008E8
:1000900057030008570300085703000857030008D8
:1000A00057030008570300085703000857030008C8
:1000B00057030008570300085703000857030008B8
:1000C00057030008570300085703000857030008A8
:1000D0005703000857030008570300085703000898
:1000E0005703000857030008570300085703000888
:1000F0005703000857030008570300085703000878
:100100005703000857030008570300085703000867
:100110005703000857030008570300085703000857
:100120005703000857030008570300085703000847
:1001300057030008000000000000000057030008FB
:100140005703000857030008570300085703000827
:100150005703000857030008570300085703000817
:100160005703000857030008570300085703000807
:100170005703000857030008570300080000000059
:10018000000000005703000800000000000000000D
:10019000570300080000000000000000570300089B
:1001A00000000000000000000000000057030008ED
:1001B00057030008570300085703000857030008B7
:1001C0005703000800F002F800F0A8F814A696E81B
:1001D000000CB244B344DA4501D100F09FF8BAE80C
:1001E0000F000FA696E83000A5EB040504EB060708
:1001F000AAEB0704A7F101074FEA15154FEA3414DB
:10020000A4F10104AC4201D300F088F813F0010F0F
:1002100018BFFB1A43F0010300F001F8DBE71847B1
:100220002452000044520000103A24BF78C878C11C
:10023000FAD8520724BF30C830C144BF04680C60EC
:1002400070470000704700000023002400250026AE
:10025000103A28BF78C1FBD8520728BF30C148BF29
:100260000B6070476E2900F01D82702900F05F83DB
:10027000662904F0E885652904F0E585672904F01E
:10028000E285612904F0E18503681B0A28BF41F07B
:100290008001692900F0CA81642900F0C7817529AD
:1002A00000F0C4816F2900F0ED82782900F02B83E3
:1002B000E92900F08782E42900F08482F52900F022
:1002C0008182EF2900F0EA82F82900F02A8303688E
:1002D000DB0928BF41F08001632901F02B807329DD
:1002E00001F03080E32901F03B80F32901F04080E8
:1002F000002070471FB504F099FD01F08FF804004D
:100300000020002104F07CFD401C606000200021E2
:1003100004F060FDE0601FBD10B510BD01F050F8A5
:100320001146FFF7E7FF04F0B9F801F02DF903B427
:10033000FFF7F2FF03BC01F075F9000009488047A0
:1003400009480047FEE7FEE7FEE7FEE7FEE7FEE7B7
:10035000FEE7FEE7FEE7FEE704480549054A064BCF
:100360007047000055360008C50100080002002053
:1003700000080020000400200004002053EA020CC2
:1003800000F069802DE9F04B4FF00006002B1FBFF5
:10039000B3FA83F503FA05F424FA05F65E4012BFBA
:1003A0001643B2FA82F502FA05F4C5F120051EBF24
:1003B00022FA05FC44EA0C04203556EA044C4FEAC4
:1003C000144418BF641C4FF000084FF0000990421D
:1003D00071EB030C39D3002919BFB1FA81F701FA87
:1003E00007F6B0FA80F700FA07F6C7F120071EBF3C
:1003F00020FA07FC46EA0C062037B6FBF4FCA7EB14
:100400000507103F07F01F0BCBF120062CFA06F66C
:100410000CFA0BFB44BFB3460026202FA4BF5E4658
:100420004FF0000B5BEA060C08BF4FF0010B19EB15
:100430000B0948EB0608ABFB027C06FB02CC0BFB6E
:1004400003CCC01B71EB0C01C1E70B4602464146D1
:100450004846BDE8F08B13B5084318BF4FF0FF3096
:100460000146AFF30080BDE81C4070471CB50C4648
:10047000064B7B4469460090204600F02CF9044668
:100480000020694600F03AF920461CBD87020000B2
:1004900010B5431C02E010F8011B71B18107FAD1BD
:1004A0004FF0013202C88C1A8C4314EAC211F9D001
:1004B000C01A0A0603D0C01E10BDC01A10BD0A041F
:1004C00001D0801E10BD0902FCD0401E10BD4FF0AF
:1004D00000020429C0F0128010F0030C00F01B8011
:1004E000CCF1040CBCF1020F18BF00F8012BA8BF1F
:1004F00020F8022BA1EB0C0100F00DB85FEAC17CE3
:1005000024BF00F8012B00F8012B48BF00F8012B95
:1005100070474FF0000200B51346944696462039C6
:1005200022BFA0E80C50A0E80C50B1F12001BFF4AC
:10053000F7AF090728BFA0E80C5048BF0CC05DF812
:1005400004EB890028BF40F8042B08BF704748BF60
:1005500020F8022B11F0804F18BF00F8012B7047D4
:1005600070477047704770B5044685690068C106DA
:1005700001D5302600E02026C00707D070BDD4E9A1
:10058000012130469047206A401C20626D1EF6D53E
:1005900070BD70B5044685690078C00707D170BD8D
:1005A000D4E9012120209047206A401C20626D1E62
:1005B000F6D570BD09684A0501D540B27047C90536
:1005C000FCD500B2704709684A0501D5C0B2704732
:1005D000C905FCD580B2704770B50C460546012AA6
:1005E00005D02878800600D5EA69002302E00123BF
:1005F00005E05B1C934202D2E05C0028F9D1A869B7
:10060000E618C01AA861286A184428622846FFF72D
:10061000AAFF04E0D5E9012114F8010B9047B44288
:10062000F8D32846FFF7B5FF70BD00002DE9F04173
:100630000646002410687529314616A510D0FFF72C
:10064000B9FF002802DA404213A507E031688A07A3
:1006500001D512A502E0490704D511A5012401E046
:10066000FFF7B1FF00210A2206F1240709E0B0FBE1
:10067000F2FCB0FBF2F302FB1C0030307854184659
:10068000491C0028F3D123462A463046BDE8F041F4
:1006900000F061BA000000002D0000002B000000F7
:1006A0002000000011680268006A530501D5087037
:1006B0000AE0D30501D5088006E0130603D5C2176A
:1006C000C1E9000200E008600120704701694A1C8E
:1006D00002610878704700B58FB0CDE90131002183
:1006E000059105497944CDE903101146684600F0AB
:1006F00029F90FB000BD0000E5FFFFFF0A6802F80E
:10070000010B0A60704700002DE9FF5F15468A461D
:100710000446DFF8AC80F8440027D8E900103E46D4
:10072000CDE9001010E03AF816106A4602A800F071
:1007300023FE411C07D02178890603D5E2693918C8
:1007400091420DD80744761C2078800602D5E069D6
:10075000B84205DDAE42E6DB3AF816000028E2D1E9
:10076000A069C01BA0612046FFF7FDFED8E900107C
:10077000CDE90010002017E03AF818106A4602A8E8
:1007800000F0FAFDB0F1FF3F81460BD000250DF1DE
:10079000080B05E0D4E901211BF8050090476D1C0A
:1007A0004D45F7D308F10100B0428046E4DB206AF2
:1007B000384420622046FFF7ECFEBDE8FF9F0000B2
:1007C000364700002DE9F0418046D21D22F0070295
:1007D0000025D2E90002F52915A614D0011E72F1F8
:1007E000000106DA0023D0EB030063EB020211A63E
:1007F00008E0D8F800108B0701D50FA602E04907E2
:1008000001D50EA601251146002408F1240704E0B5
:1008100000F05CF930323A55641C50EA0102F7D11D
:100820002B46324621464046BDE8F04100F093B9E0
:10083000000000002D0000002B0000002000000040
:1008400030B4002100F1240408E002F00705D208CA
:10085000303542EA4372DB086554491C52EA03050D
:10086000F3D10468002310A2250708D504F0200462
:100870000C4304D0C46901230CA2641EC46130BCC3
:1008800000F069B910B5044621461068FFF79BFED9
:1008900002462046BDE810400023D1E7D21D22F0D9
:1008A0000701D1E90023CBE7000000003000000081
:1008B000F0B40D460188090502D5214C7C4402E0C4
:1008C0001F4C7C440E34002100F1240608E002F0A5
:1008D0000F071209E75D42EA03721B097754491CAE
:1008E00052EA0307F3D102780023120704D5702DD2
:1008F00006D009B1022311342246F0BC00F02BB916
:1009000001231034F8E770B504460D4621461068FF
:10091000FFF759FE024629462046BDE870400023F5
:10092000C6E7D21D22F00703D3E90023C0E703681E
:10093000126843F0200303600823C3610023B7E774
:10094000984500002DE9F05F894604464FF0000A03
:10095000DFF874B1FB44C0F820A02046E168884766
:10096000002874D0252806D0D4E901219047206AB8
:10097000401C2062F1E700265F462046E168884778
:100980002028054607DB312D05D2781910F8200CF8
:1009900008B10643F1E7B00701D526F00406C4F814
:1009A0001CA00027C4F818A02A2D09D0284604F05E
:1009B00009FA38B304EB8708303DC8F8185019E03D
:1009C00059F8041B204604EB87029161E1688847CF
:1009D000012F054618D1E069002820DA26F020060C
:1009E0001DE0D8F8180000EB800005EB400030381F
:1009F000C8F818002046E1688847054604F0E2F987
:100A00000028EED1012F0AD02E2D08D12046E16812
:100A100088477F1C0546022F46F02006C4DBA069EC
:100A2000002803DA404246F00106A061F00701D039
:100A300026F010066C2D0BD0682D09D04C2D39D026
:100A40006A2D35D0742D35D07A2D33D016E038E0AC
:100A5000E1682F4620468847B842054609D16C2FE9
:100A600026D04FF48060E16806432046884705465B
:100A700004E06C2F1AD04FF4807006430DB3A5F13B
:100A80004100192802D8203546F400664A46294616
:100A9000204626604E46FFF7E5FB80B101280BD0CB
:100AA000F61D26F0070000F1080956E74020E4E7AC
:100AB0008020D8E70020D6E706F104094DE7284654
:100AC00052E7206ABDE8F09F2845000030B5B0F13C
:100AD0000A0271F100034FEA900E4EEA817EB0EBFC
:100AE0000E0061EB91014FEA101E4EEA017E10EB01
:100AF0000E0041EB11114FEA102E4EEA016E10EB81
:100B00000E0041EB11214FEA104E4EEA014E10EB60
:100B10000E0041EB1141401841F100014FEAD000B5
:100B200040EA41704FEAD1014FEA810444EA9074EF
:100B300010EB800544EB01046D1944EB0404521BD7
:100B4000A3414FF0000348BF0A3200D530BD401C1E
:100B500041F1000130BD2DE9F0470D46994692461E
:100B6000044600F124080168880604D5E06921F0F4
:100B70001001216000E00120A84201DD471B00E0D8
:100B80000027A1697A1902EB0900081AA0612078F0
:100B9000C00602D42046FFF7E6FC002608E0D4E9B0
:100BA00001211AF806009047206A401C761C20623A
:100BB0004E45F4DB2078C0060AD52046FFF7D3FC6B
:100BC00006E0D4E9012130209047206A401C2062D1
:100BD000381EA7F10107F4DC07E0D4E9012118F879
:100BE00005009047206A401C2062281EA5F10105DF
:100BF000F3DC2046FFF7CDFC2078000602D502206A
:100C0000BDE8F0870120FBE72DE9FF4F0C461E46AB
:100C10004FF0FF378BB0D2E90001DDF860800A9019
:100C20008A46C1F30A5505B93D46002108464FF0F2
:100C30000000BAF1000F00F4400005DA00EB80007C
:100C40004FF4400101EA50004FEA9059B9F1010F09
:100C500000DDB9460A9850EA4A000ED044F610501A
:100C6000A5F2FF3545432F14B8F1000F1ED0754291
:100C7000291E1EDDC9F100021CE0B8F1010F4FF082
:100C8000000001D0302103E0F24305E02154401C74
:100C9000B042FBDB30460022002121540B99C1F801
:100CA0000880C1E900200FB0BDE8F08FBD1B6D1CAE
:100CB000DEE74A4600DA694206A800F0F3FB06AB1D
:100CC00093E8070003AB83E8070050460A9903F056
:100CD00098FC8DE80700A0F500501F38009003989D
:100CE000002D0ADD42F21F014A460844002303A9F1
:100CF0000390684603F002FF09E0A0F500504A4661
:100D00001F38002303A90390684603F00CFF8DE809
:100D100007000004000C03D04FF0FF30410800E052
:100D20001046B8F1000F03D00022009215461EE0D5
:100D3000751E05D4FFF7CAFE303262556D1EF9D517
:100D4000B3460122084302D000227F1C04E0207831
:100D5000302801D100227F1E002A099784D01DE08F
:100D6000112D07DAFFF7B2FE303262556D1C50EAE2
:100D70000102F5D1084302D00098C8B10EE000216D
:100D8000681E05E0235C625C63542254401E491CCB
:100D90008142F7DBAB46A81B401E0990002004F8F7
:100DA0000B000B98099AC0F80880C0E9002B7AE77D
:100DB00011264FF0000857E72DE9F04F884604460A
:100DC000D21D22F0070191B0D1E90001CDE90A015D
:100DD00003F0E0FF02460B98C00F01D02D2007E082
:100DE0002068810701D52B2002E0202101EAC00004
:100DF000032A099001D0072A05DB03464146204615
:100E000000F010FB0BE12078800601D5E06900E0DE
:100E10000620B8F1650F814606D0B8F1660F18D0EC
:100E2000B8F1670F70D131E00020B9F1110F0090D7
:100E300001DB112301E009F101030AAA01A90CA8B1
:100E4000FFF7E2FEDDE90C70002609F1010583469B
:100E500047E001204B4600904FF000470AAA01A945
:100E60000CA8FFF7D1FEDDE90DB00C995D46002618
:100E700010B909F101000D18B9EB050003D4C0F158
:100E8000FF3609F10105A5EB09002BE0B9F1010FCF
:100E900001DA4FF001090020B9F1110F0090484626
:100EA00001DD112300E003460AAA01A90CA8FFF7FF
:100EB000ABFEDDE90C704D46002683462078000726
:100EC0000AD4AB4500DA5D4601A8012D04DD4119C5
:100ED00011F8011C302907D04F4502DA17F1040F31
:100EE00004DA012082460FE06D1EEEE7002F02DCDF
:100EF000ED1B3E4403E0781CA84200DD7D1CB81BBE
:100F000000F1010A4FF000472078000703D4AA45FA
:100F100001DB4FF0FF3A0021B7F1004F0DF143081C
:100F20008DF8431024D002202B23002F01DA7F42BA
:100F30002D230A21021EA0F1010000DC5FB197FB06
:100F4000F1FC97FBF1F201FB1C7C17460CF1300C15
:100F500008F801CDEEE7A8F101000370218809052A
:100F600001D5452100E06521A0F1010800F8011C30
:100F700009980FA9A1EB0807FF1D00B10120411935
:100F800001EBEA70A1693844081A401EA06120787C
:100F9000C00602D42046FFF7E6FA099828B1D4E942
:100FA00001219047206A401C20622078C00622D58B
:100FB0002046FFF7D8FA1EE0002E04DBB34502DD21
:100FC00001A8805D00E03020D4E901219047206A2B
:100FD000401C2062761CAAF101005FEA000A0AD1D7
:100FE00000F01CFAC0680168405CD4E90121904718
:100FF000206A401C2062281EA5F10105DCDC07E008
:10100000D4E9012118F8010B9047206A401C2062A6
:10101000381EA7F10107F3DC2046FFF7BAFA0320D8
:1010200011B041E62DE9F04F04460D46D21D22F0E5
:10103000070089B0D0E900974846394603F0AAFE78
:101040000246F80F01D02D2307E02068810701D563
:101050002B2302E0202101EAC0038DF820300BB1E0
:10106000012000E00020032A824601D0072A04DB89
:101070002946204600F0D6F93FE12078800601D4C9
:101080000D2500E0E569C7F30A560D2D49DA002168
:101090004FEA175B08464FF00000002F00F44000B5
:1010A00007DA00EB80004FF4400100EBD07001EA5A
:1010B00060008115012901DD4FF0FF3100224FEA68
:1010C000850CBCF1180F06D31346ACF118004FF095
:1010D0008052C24003E04FF4801323FA0CF30CF16A
:1010E0000C0CBCF1200F04D3ACF1200C09FA0CF06D
:1010F00001E007FA0CF000294FF0004801DD18B9B3
:101100000FE00ED140450CD319EB02095F4121B924
:10111000404502D19F4329EA0209BBEB175F00D08B
:10112000761C2088000502D57B48784402E07A4886
:101130007844193808AA302302F80A30037C0AF1EF
:101140000101002E0AF1020A53546A4602DC4FF0F4
:10115000300101E04FF031014FF001088DF800102F
:1011600002D0A6F2FF3603E059EA470100D06B4EE9
:10117000002D02DC2178090704D54FF002082E214A
:101180008DF80110C44600210BE0C7F303433F0173
:10119000C35C491C6D1E02F80830052908F10108DE
:1011A00001DA002DF1DC00210CE000EB1973491C81
:1011B0001B786D1E082902F808304FEA091908F15A
:1011C000010801DA002DF0DC21688B0602D516E05B
:1011D000A8F10108E04505DD02EB080313F8013C26
:1011E000302BF5D0B8F1000F09DD02EB080313F83E
:1011F000013C2E2B03D1090701D4A8F10108002DD1
:1012000005DD3E2102F808106D1E08F10108407C42
:10121000002E02F8080008F1010804DA2D207642B9
:1012200002F8080002E02B2002F808000A214FF41F
:101230007A70864208F101080BDB96FBF0F330333D
:1012400002F8083096FBF0F308F1010800FB136682
:1012500001E0642E0CDB642096FBF0F3303302F8DF
:10126000083096FBF0F308F1010800FB136601E07B
:101270000A2E06DB96FBF1F0303002F8080008F188
:10128000010896FBF1F001FB1060303002F8080015
:10129000A16908F1010808EB050202EB0A00081A2F
:1012A000A0612078C00602D42046FFF75CF9216ACD
:1012B00008AE01EB0A00206204E0D4E9012116F82F
:1012C000010B9047BAF1010AF7D22078C00602D587
:1012D0002046FFF748F96E4609E016F8010B3E2854
:1012E0000FD0D4E901219047206A401C2062B8F158
:1012F0000108F2D22046FFF74CF909B00320BDE8FF
:10130000F08F206A2844206203E0D4E901213020D4
:1013100090476D1EEBD3F8E7763D000002FCFFFF1F
:1013200010B5436913B1AFF3008001E0FFF754F942
:10133000012010BD127800F124010A7000224A70C9
:101340000122EDE711684FF0FF32E9E710B543697C
:1013500013B1AFF3008001E0FFF7D6F9012010BD13
:10136000128800F1240182840022C2840122EDE768
:1013700011684FF0FF32E9E72DE9F04116460C46BF
:10138000054600F043F8036893F80101012807D0EF
:10139000FF2C12D8185D80B101202C70BDE8F081BF
:1013A000D3F807013246214603F20713C71828462F
:1013B000BC46BDE8F041002360474FF0FF30EDE749
:1013C000754600F0EBF8AE4605006946534620F03E
:1013D0000700854618B020B5FEF7BEFFBDE82040E7
:1013E0004FF000064FF000074FF000084FF0000BE1
:1013F000AC46ACE8C009ACE8C009ACE8C009ACE850
:10140000C00921F007018D467047000010B500F0BB
:1014100005F8001D10BD00BFE93900000048704705
:10142000580000202DE9F0411F46044603260168BC
:10143000072A01F4006004DB08B116A505E016A533
:1014400003E008B115A500E015A521F0100020600B
:10145000A069C01EA0610FB1401EA0612046FFF729
:1014600082F84FB1D4E9012138469047206A401CE8
:101470002062C01C206206E0206AFAE7D4E901215C
:1014800015F8010B9047761EF8D22046FFF781F839
:10149000BDE8F0814E414E006E616E00494E46003F
:1014A000696E66002DE9F047814616468AB03548D8
:1014B00078440DC88DE80D0032487844801C03AC98
:1014C0000DC884E80D0041F69B300844372190FB9D
:1014D000F1F290FBF1F5A5F1800501FB12041B3C34
:1014E00002D56442012000E00020DFF898A0804689
:1014F0000027FA44AAF1BE0A0EE0E0070AD03246FD
:10150000684607EB470101230AEB810103F00BFB5F
:101510008DE8070064107F1C002CEED1194F7F442A
:10152000AE3F19E0E80715D007EB04100DF1180ADB
:1015300090E80E008AE80E00C068F04201D19819C8
:1015400008903246012306A903A803F0ECFA03AB86
:1015500083E807006D10641C002DE3D14FF00103F8
:1015600032466946B8F1000F03A802D003F0C6FA6C
:1015700001E003F0D8FAC9E90001C9F808200AB06F
:10158000BDE8F087803A000010B50446AFF3008054
:101590002046BDE81040FEF7CABE00000048704774
:1015A000380000200000000030B44FF0013C50F83B
:1015B000042B51F8043BCCFA52F4D51A20D1FCB9D3
:1015C00050F8042B51F8043BCCFA52F4D51A17D139
:1015D000B4B950F8042B51F8043BCCFA52F4D51AA4
:1015E0000ED16CB950F8042B51F8043BCCFA52F4EC
:1015F000D51A05D1002CDAD030BC4FF0000070476E
:1016000029BAB1FA81F111F01801D1F1200084401A
:10161000F2D1CA40CB4012F0FF0213F0FF0330BCFE
:10162000D01A704701491820ABBEFEE72600020021
:1016300070470000FFE7FEE77047000072B6FFE763
:10164000FEE7000083B002908DF8071000200090A4
:101650009DF8070018B9FFE70020009017E09DF8FB
:101660000700012804D1FFE74FF4807000900DE0DF
:101670009DF80700022804D1FFE74FF400700090A6
:1016800003E04FF440700090FFE7FFE7FFE743F609
:101690001041C4F20201086820F440700860009A0A
:1016A000086810430860086820F0F8000860029A93
:1016B000086840EAC20040F002000860086840F490
:1016C0008030086003B0704743F60040C4F2020067
:1016D0000068800500281FD5FFE743F60041C4F2EB
:1016E0000201086820F400700860FFE743F600413B
:1016F000C4F20201086840F400600860086820F441
:1017000000600860FFE743F60041C4F20201086888
:1017100040F400700860FFE743F60040C4F20200A6
:101720000068400500281FD5FFE743F60041C4F2DA
:101730000201086820F480600860FFE743F600417A
:10174000C4F20201086840F480500860086820F480
:1017500080500860FFE743F60041C4F202010868C8
:1017600040F480600860FFE77047000082B08DF8A9
:101770000700009143F61041C4F20201086820F40A
:1017800040700860086840F0040008609DF8072079
:10179000086840EA022040F48030086002B07047D8
:1017A00043F61440C4F20200007800F00C007047C9
:1017B00081B0AA208DF8030043F61540C4F2020060
:1017C0000078CC2804D1FFE7CC208DF8030010E08E
:1017D00043F61540C4F202000078AA2804D1FFE7BE
:1017E000AA208DF8030003E055208DF80300FFE7E1
:1017F000FFE79DF8030001B07047000043F6144076
:10180000C4F20200006800F0E000704743F61640A2
:10181000C4F202000088704782B001908DF8031076
:1018200043F61041C4F20201086820F440700860D9
:1018300008680860086840F0010008609DF803002F
:101840000199087002B0704784B003900193009230
:1018500043F61041C4F20201086820F440700860A9
:10186000086840F440700860086840F001000860B3
:10187000009803990860BFF36F8F0198039948603F
:1018800004B0704782B00190ADF8021043F61041E9
:10189000C4F20201086820F440700860086840F44F
:1018A00080700860086840F001000860BDF8020020
:1018B0000199088002B0704782B00190009143F610
:1018C0001041C4F20201086820F440700860086802
:1018D00040F400700860086840F00100086000985B
:1018E0000199086002B0704743F60C40C4F2020050
:1018F0000068C00600280FD5FFE740F20401C2F2DD
:101900000001C86940F01000C86143F60C41C4F200
:10191000020110200860FFE743F60C40C4F2020009
:101920000068800600280FD5FFE740F20401C2F2EC
:101930000001C86940F00800C86143F60C41C4F2D8
:10194000020120200860FFE743F60C40C4F20200C9
:101950000068400600280FD5FFE740F20401C2F2FC
:101960000001C86940F00400C86143F60C41C4F2AC
:10197000020140200860FFE743F60C40C4F2020079
:101980000068000600280FD5FFE740F20401C2F20C
:101990000001C86940F00200C86143F60C41C4F27E
:1019A000020180200860FFE743F60C40C4F2020009
:1019B0000068C005002810D5FFE740F20401C2F21C
:1019C0000001C86940F00100C86143F60C41C4F24F
:1019D00002014FF480700860FFE743F60C40C4F248
:1019E00002000068800700280FD5FFE740F20401DD
:1019F000C2F20001C86940F02000C86143F60C4102
:101A0000C4F2020102200860FFE7704780B584B08D
:101A100002900020019040F20401C2F20001C8616E
:101A200000F014FC0190FFE743F60C40C4F2020002
:101A30000068C003002815D5FFE70298013080B187
:101A4000FFE7029840B1FFE700F000FC0199401A5F
:101A50000299884204D9FFE703208DF80F0023E0A4
:101A6000FFE7E1E743F60C40C4F202000068C0075C
:101A700038B1FFE743F60C41C4F2020101200860CF
:101A8000FFE743F60C40C4F20200006810F4F97F4F
:101A900006D0FFE7FFF728FF01208DF80F0003E0D5
:101AA00000208DF80F00FFE79DF80F0004B080BD07
:101AB00085B004900391029200200090049A0221C4
:101AC00051710190FFE70198029988420CD2FFE71B
:101AD0000398019950F82100049909680860FFE70C
:101AE000019801300190EEE70498006800680090CA
:101AF000049901204871009805B0704780B582B004
:101B00000090009820B9FFE701208DF8070011E050
:101B10000098407938B9FFE70099002008710098D3
:101B200000F00CF8FFE700990120487100208DF8C3
:101B30000700FFE79DF8070002B080BD82B001906A
:101B40000198006843F20001C4F20201884212D1F8
:101B5000FFE7FFE70020009043F63000C4F20200E8
:101B6000016841F480510160006800F480500090E9
:101B70000098FFE7FFE702B07047000080B586B02D
:101B80000490039100200190FFE740F20400C2F2AC
:101B90000000007E012804D1FFE702208DF8170025
:101BA0006CE040F20401C2F2000101200876FFE778
:101BB000FFE74CF25030FFF729FF8DF80B009DF83E
:101BC0000B0000284DD1FFE703994FF0FF3008606C
:101BD00004980068012814D1FFE70499087C49683B
:101BE000FFF7C4FD4CF25030FFF710FF8DF80B00EB
:101BF00043F61041C4F20201086820F004000860B6
:101C00002CE0049880680190FFE7019804998A68A5
:101C1000C9681144884220D2FFE701980499097CE1
:101C2000FFF710FD4CF25030FFF7F0FE8DF80B007F
:101C300043F61041C4F20201086820F0FA0008607F
:101C40009DF80B0020B1FFE701980399086004E0BC
:101C5000FFE7019801300190D7E7FFE7FFF734FD78
:101C6000FFE7FFE740F20401C2F20001002008761E
:101C7000FFE79DF80B008DF81700FFE79DF81700B0
:101C800006B080BD80B582B0019001990F20086038
:101C9000FFF7BCFD01998860FFF78AFD0199086193
:101CA000FFF7ACFD01990876FFF77AFD01994861CD
:101CB00002B080BD43F61041C4F20201086840F052
:101CC000004008600020704743F61441C4F202014E
:101CD000086840F0010008600020704781B043F6BA
:101CE0001440C4F202000068C00778B1FFE743F671
:101CF0000841C4F2020142F63B20C0F61900086018
:101D000046F67F60C4F65D40086003E001208DF870
:101D1000030003E000208DF80300FFE79DF80300B7
:101D200001B0704780B588B0069005910393029288
:101D3000FFE740F20400C2F20000007E012804D157
:101D4000FFE702208DF81F0051E040F20401C2F2CB
:101D5000000101200876FFE7FFE74CF25030FFF763
:101D600055FE8DF807009DF8070098BBFFE7069821
:101D700030B9FFE705989DF80810FFF74DFD1AE010
:101D80000698012806D1FFE70598BDF80810FFF76F
:101D900079FD0FE00698022805D1FFE70598029922
:101DA000FFF78AFD05E00598029A039BFFF74CFDBB
:101DB000FFE7FFE7FFE74CF25030FFF727FE8DF813
:101DC000070043F61041C4F20201086820F0010048
:101DD0000860FFE7FFE740F20401C2F200010020C3
:101DE0000876FFE79DF807008DF81F00FFE79DF8D4
:101DF0001F0008B080BD000081B000208DF80300F6
:101E000043F61040C4F202000068C00FD8B1FFE7EB
:101E100043F60441C4F2020140F22310C4F26750B9
:101E2000086048F6AB10CCF6EF50086043F610405F
:101E3000C4F202000068C00F20B1FFE701208DF856
:101E40000300FFE7FFE79DF8030001B070470000C3
:101E50008DB00C900B9100200990089007900A908B
:101E6000FFE70A980F2800F2BE81FFE70A990120D8
:101E7000884009900B9800680999084008900898D4
:101E80000999884240F0AA81FFE70B98406800F06A
:101E90000300012807D0FFE70B98406800F003001B
:101EA00002282FD1FFE70C98806807900A9841001C
:101EB000032000FA01F10798884307900B98C06847
:101EC0000A99490000FA01F107980843079007981A
:101ED0000C9988600C98406807900A99012000FAD4
:101EE00001F10798884307900B984068C0F30010F1
:101EF0000A9900FA01F107980843079007980C998E
:101F00004860FFE70B98406800F00300032818D0F2
:101F1000FFE70C98C06807900A984100032000FA78
:101F200001F10798884307900B9880680A99490047
:101F300000FA01F107980843079007980C99C860C8
:101F4000FFE70B98406800F00300022826D1FFE766
:101F50000C980A996FF0030202EA51010844006AE2
:101F600007900A9800F0070081000F2000FA01F1A5
:101F70000798884307900B9800690A9901F00701B8
:101F8000890000FA01F107980843079007980C9917
:101F90000A9B02EA530211440862FFE70C980068AA
:101FA00007900A984100032000FA01F1079888433E
:101FB00007900B98406800F003000A99490000FA66
:101FC00001F107980843079007980C9908600B984F
:101FD00080798007002800F00081FFE7FFE70020FC
:101FE000069043F64400C4F20200016841F48041C7
:101FF0000160006800F4804006900698FFE70A98A8
:1020000020F0030043F60801C4F201014058079094
:102010000A9800F0030081000F2000FA01F10798F0
:10202000884307900C980021C4F20201884203D132
:10203000FFE70020059050E00C9840F20041C4F208
:102040000201884203D1FFE70120049042E00C988E
:1020500040F60001C4F20201884203D1FFE70220EA
:10206000039034E00C9840F60041C4F2020188422B
:1020700003D1FFE70320029026E00C9841F2000113
:10208000C4F20201884203D1FFE70420019018E066
:102090000C9841F20041C4F20201884203D1FFE7EB
:1020A000052000900AE00C9941F60002C4F20202F9
:1020B0000720914208BF06200090FFE7009801909A
:1020C000FFE701980290FFE702980390FFE703986B
:1020D0000490FFE704980590FFE70598C0B20A99BD
:1020E00001F00301890000FA01F107980843079005
:1020F00007980A9921F0030143F60802C4F201028D
:10210000885043F60840C4F201000068079008991F
:102110000798884307900B988079C006002805D55A
:10212000FFE70899079808430790FFE7079843F6E9
:102130000841C4F20101086043F60C40C4F20100FA
:102140000068079008990798884307900B98807952
:102150008006002805D5FFE70899079808430790EF
:10216000FFE7079843F60C41C4F20101086043F60B
:102170000440C4F20100006807900899079888435A
:1021800007900B9880798007002805D5FFE708990C
:10219000079808430790FFE7079843F60441C4F205
:1021A0000101086043F60040C4F201000068079096
:1021B00008990798884307900B988079C00728B141
:1021C000FFE70899079808430790FFE7079843F649
:1021D0000041C4F201010860FFE7FFE7FFE70A984A
:1021E00001300A903DE60DB07047000082B00190CA
:1021F000ADF8021001980069BDF80210084204D041
:10220000FFE701208DF8010003E000208DF80100B8
:10221000FFE79DF8010002B07047000082B0019016
:10222000ADF802108DF801209DF8010028B1FFE7FC
:10223000BDF802000199886105E0BDF802000004C4
:1022400001998861FFE702B07047000040F2F81082
:10225000C2F200000068704740F22C00C2F2000099
:10226000027840F2F811C2F20001086810440860D8
:102270007047000080B582B043F60041C4F202010D
:10228000086840F400700860086840F480600860E6
:10229000086840F480700860032000F085F8002092
:1022A000019000F005F800F03BF8019802B080BD05
:1022B00080B582B0009040F20000C2F200000068D9
:1022C00040F22C01C2F200010A784FF47A71B1FB9E
:1022D000F2F1B0FBF1F000F017FE20B1FFE70120B2
:1022E0008DF8070018E000980F280DD8FFE7009937
:1022F0004FF0FF30002200F03DF8009840F230012E
:10230000C2F20001086003E001208DF8070003E03D
:1023100000208DF80700FFE79DF8070002B080BDA0
:1023200080B582B0FFE70020019043F64400C4F27C
:102330000200016841F480410160006800F48040BF
:1023400001900198FFE7FFE70020009043F640006E
:10235000C4F20200016841F080510160006800F0A1
:10236000805000900098FFE7072000F01DF802B0B1
:1023700080BD000080B586B08DF8170004910392EF
:102380000020029001F0C8FA02909DF91700019018
:1023900002980499039A01F099F80146019801F016
:1023A000C3FA06B080BD000080B582B001900198EC
:1023B00001F0DCFA02B080BD80B584B002900191DA
:1023C000029820B9FFE701208DF80F0021E1019864
:1023D00043F60041C4F20201096801F00F0188428E
:1023E00012D9FFE7019943F60040C4F202000170E0
:1023F000006800F00F000199884204D0FFE7012037
:102400008DF80F0005E1FFE70298007880070028AB
:102410002AD5FFE7029800784007002809D5FFE792
:1024200043F60801C4F20201086840F4E050086075
:10243000FFE7029800780007002809D5FFE743F678
:102440000801C4F20201086840F460400860FFE738
:1024500043F60801C4F20201086820F0F000029A75
:10246000926810430860FFE702980078C0070028D0
:102470006ED0FFE702984068012811D1FFE743F6CC
:102480000000C4F20200006800F400310020B0EB4C
:10249000514F04D1FFE701208DF80F00B9E02CE087
:1024A00002984068022805D0FFE702984068032898
:1024B00011D1FFE743F60000C4F20200006800F00B
:1024C00000710020B0EB516F04D1FFE701208DF8BF
:1024D0000F009EE010E043F60000C4F20200006826
:1024E00000F002010020B0EB510F04D1FFE7012002
:1024F0008DF80F008DE0FFE7FFE743F60801C4F217
:102500000201086820F00300029A52681043086034
:10251000FFF79CFE0090FFE743F60800C4F20200BC
:10252000006800F00C0002994968B0EB810F0ED0F2
:10253000FFE7FFF78BFE0099401A41F2893188428C
:1025400004D3FFE703208DF80F0062E0E4E7FFE724
:10255000019843F60041C4F20201096801F00F013D
:10256000884212D2FFE7019943F60040C4F202000C
:102570000170006800F00F000199884204D0FFE765
:1025800001208DF80F0044E0FFE702980078400733
:1025900000280CD5FFE743F60801C4F202010868E1
:1025A00020F4E050029AD26810430860FFE70298D6
:1025B0000078000700280DD5FFE743F60801C4F2B4
:1025C0000201086820F46040029A126940EAC200E1
:1025D0000860FFE700F04CF843F60801C4F202017E
:1025E0000968C9B20A0944F64C71C0F60001895C59
:1025F000C84040F20001C2F20001086040F2300021
:10260000C2F200000068FFF753FE00208DF80F00B3
:10261000FFE79DF80F0004B080BD000040F200000D
:10262000C2F200000068704780B5FFF7F7FF43F67D
:102630000801C4F202010968C1F3822244F65C7108
:10264000C0F60001895CC84080BD000080B5FFF77E
:10265000E5FF43F60801C4F20201096889B24A0B9A
:1026600044F65C71C0F60001895CC84080BD000082
:1026700080B586B0002005900490039002900190F0
:1026800043F60800C4F20200006800F00C000146A6
:1026900000910C2800F29B800099DFE801F0079878
:1026A00098980D98989813989898570042F200407F
:1026B000C0F2F400019090E041F20020C0F27A00F4
:1026C00001908AE043F60400C4F20200016801F0C0
:1026D0003F01059100684002002813D5FFE743F64B
:1026E0000400C4F202000068C0F3881041F2002127
:1026F000C0F27A01A0FB0101059A0023FDF73EFE1E
:10270000049012E043F60400C4F202000068C0F333
:10271000881042F20041C0F2F401A0FB0101059AC9
:102720000023FDF72BFE0490FFE743F60400C4F2FC
:102730000200006800F44031022000EBD130039029
:1027400004980399B0FBF1F0019046E043F60400D1
:10275000C4F20200016801F03F01059100684002E7
:10276000002813D5FFE743F60400C4F20200006816
:10277000C0F3881041F20021C0F27A01A0FB0101F0
:10278000059A0023FDF7FAFD049012E043F60400D9
:10279000C4F202000068C0F3881042F20041C0F2A7
:1027A000F401A0FB0101059A0023FDF7E7FD049069
:1027B000FFE743F60400C4F202000068C0F30270B1
:1027C000029004980299B0FBF1F0019005E042F20A
:1027D0000040C0F2F4000190FFE7019806B080BD10
:1027E00080B586B00490049820B9FFE701208DF8E9
:1027F000170084E304980078C007002800F0BA802E
:10280000FFE743F60800C4F20200006800F00C0085
:10281000042828D0FFE743F60800C4F2020000684D
:1028200000F00C0008280BD1FFE743F60400C4F2C7
:102830000200006800F48000B0F5800F13D0FFE7BD
:1028400043F60800C4F20200006800F00C000C28F7
:102850001ED1FFE743F60400C4F202000068400204
:10286000002815D5FFE743F60000C4F20200006817
:1028700000F400310020B0EB514F08D0FFE704987E
:10288000406820B9FFE701208DF8170037E370E0BA
:10289000FFE704984068B0F5803F09D1FFE743F6B1
:1028A0000001C4F20201086840F48030086020E0B2
:1028B00004984068B0F5A02F0DD1FFE743F6000162
:1028C000C4F20201086840F480200860086840F4FF
:1028D000803008600CE043F60001C4F20201086891
:1028E00020F480300860086820F480200860FFE74A
:1028F000FFE7FFE704984068E8B1FFE7FFF7A6FCB1
:102900000390FFE743F60000C4F20200006800F401
:1029100000310020B0EB514F0CD1FFE7FFF796FCE0
:102920000399401A652804D3FFE703208DF81700A8
:10293000E5E2E7E71CE0FFF789FC0390FFE743F6D9
:102940000000C4F20200006800F400310020B0EB87
:10295000514F0CD0FFE7FFF779FC0399401A652827
:1029600004D3FFE703208DF81700C8E2E7E7FFE78D
:10297000FFE7FFE7049800788007002840F1A9806E
:10298000FFE743F60800C4F20200006810F00C0FE5
:1029900026D0FFE743F60800C4F20200006800F00A
:1029A0000C00082809D1FFE743F60400C4F2020036
:1029B00000684002002813D5FFE743F60800C4F280
:1029C0000200006800F00C000C282CD1FFE743F651
:1029D0000400C4F2020000684002002823D4FFE78C
:1029E00043F60000C4F20200006800F0020100207B
:1029F000B0EB510F09D0FFE70498C068012804D05C
:102A0000FFE701208DF8170079E243F60001C4F2D8
:102A10000201086820F0F800049A126940EAC20036
:102A20000860FFE754E00498C06870B3FFE7002136
:102A3000C4F2472101200860FFF708FC0390FFE77C
:102A400043F60000C4F20200006800F0020100201A
:102A5000B0EB510F0CD1FFE7FFF7F8FB0399401AD9
:102A6000032804D3FFE703208DF8170047E2E7E7C8
:102A700043F60001C4F20201086820F0F800049A4D
:102A8000126940EAC200086021E00021C4F2472137
:102A900000200860FFF7DAFB0390FFE743F6000031
:102AA000C4F20200006800F002010020B0EB510FF8
:102AB0000CD0FFE7FFF7CAFB0399401A032804D3A1
:102AC000FFE703208DF8170019E2E7E7FFE7FFE7CC
:102AD000FFE704980078000700284BD5FFE704982B
:102AE000406918B3FFE740F68061C4F24721012036
:102AF0000860FFF7ABFB0390FFE743F67400C4F2F6
:102B00000200006800F002010020B0EB510F0CD170
:102B1000FFE7FFF79BFB0399401A032804D3FFE765
:102B200003208DF81700EAE1E7E722E040F6806134
:102B3000C4F2472100200860FFF788FB0390FFE7FD
:102B400043F67400C4F20200006800F002010020A5
:102B5000B0EB510F0CD0FFE7FFF778FB0399401A59
:102B6000032804D3FFE703208DF81700C7E1E7E748
:102B7000FFE7FFE7049800784007002840F1CE8087
:102B8000FFE700208DF8070043F64000C4F2020082
:102B90000068C000002815D4FFE7FFE70020009080
:102BA00043F64000C4F20200016841F08051016028
:102BB000006800F0805000900098FFE701208DF839
:102BC0000700FFE747F20000C4F200000068C005FC
:102BD000002822D4FFE747F20001C4F20001086890
:102BE00040F480700860FFF731FB0390FFE747F285
:102BF0000000C4F200000068C00500280CD4FFE704
:102C0000FFF724FB0399401A032804D3FFE70320AE
:102C10008DF8170073E1EAE7FFE7FFE704988068A3
:102C2000012809D1FFE743F67001C4F202010868E8
:102C300040F0010008601FE00498806805280DD16D
:102C4000FFE743F67001C4F20201086840F0040097
:102C50000860086840F0010008600CE043F670016D
:102C6000C4F20201086820F001000860086820F042
:102C700004000860FFE7FFE7FFE704988068F8B109
:102C8000FFE7FFF7E3FA0390FFE743F67000C4F2B3
:102C90000200006800F002010020B0EB510F0ED1DD
:102CA000FFE7FFF7D3FA0399401A41F289318842CE
:102CB00004D3FFE703208DF8170020E1E5E71EE0CD
:102CC000FFF7C4FA0390FFE743F67000C4F2020076
:102CD000006800F002010020B0EB510F0ED0FFE7BA
:102CE000FFF7B4FA0399401A41F28931884204D3BC
:102CF000FFE703208DF8170001E1E5E7FFE79DF806
:102D00000700012809D1FFE743F64001C4F20201A0
:102D1000086820F080500860FFE7FFE704988069AA
:102D2000002800F0E880FFE743F60800C4F2020044
:102D3000006800F00C00082800F08880FFE7049885
:102D4000806902285FD1FFE76021C4F2472100209B
:102D50000860FFF77BFA0390FFE743F60000C4F238
:102D60000200006800F000710020B0EB516F0CD041
:102D7000FFE7FFF76BFA0399401A032804D3FFE734
:102D800003208DF81700BAE0E7E70499C869D1F885
:102D900020C04B6A8A6A40EA0C0040EA8310D203E2
:102DA0004FF6FF739A43A2F580321043CA6A40EA95
:102DB0000260096B40EA017043F60401C4F20201AB
:102DC00008606021C4F2472101200860FFF73EFA45
:102DD0000390FFE743F60000C4F20200006800F031
:102DE00000710020B0EB516F0CD1FFE7FFF72EFA16
:102DF0000399401A032804D3FFE703208DF8170036
:102E00007DE0E7E721E06021C4F24721002008606F
:102E1000FFF71CFA0390FFE743F60000C4F202003C
:102E2000006800F000710020B0EB516F0CD0FFE79C
:102E3000FFF70CFA0399401A032804D3FFE7032095
:102E40008DF817005BE0E7E7FFE753E0049880693F
:102E5000012804D1FFE701208DF817004FE043F669
:102E60000400C4F2020000680290049880690128FE
:102E70003AD0FFE7029800F480000499C9698842BB
:102E800032D1FFE7029800F03F000499096A8842B6
:102E90002AD1FFE7029847F6C07108400499496AB1
:102EA000B0EB811F20D1FFE7029800F44030049975
:102EB000896AC9034FF6FF729143A1F580318842B8
:102EC00012D1FFE7029800F070600499C96AB0EB74
:102ED000016F09D1FFE7029800F0E0400499096B07
:102EE000B0EB017F04D0FFE701208DF8170006E06A
:102EF000FFE7FFE7FFE700208DF81700FFE79DF8E9
:102F0000170006B080BD000080B582B00190019826
:102F100000F016FB02B080BD80B582B00090009832
:102F200020B9FFE701208DF8070040E00098806994
:102F300008B1FFE700E0FFE7009890F8410040B9D2
:102F4000FFE70099002081F84000009800F034F875
:102F5000FFE70099242081F8410000980168C868C3
:102F600020F40050C860009800F0C8FB0098016889
:102F7000086920F49040086100980168486920F0D1
:102F80002A00486100980168C86840F40050C86091
:102F9000009900204864009A202182F84110009A8C
:102FA00082F84210009948638DF80700FFE79DF80A
:102FB000070002B080BD000080B58AB009900020F3
:102FC000089007900690059004900998006844F2D4
:102FD0000041C4F20001884233D1FFE7FFE700203F
:102FE000039043F64000C4F20200016841F400314E
:102FF0000160006800F4003003900398FFE7FFE7EA
:103000000020029043F63000C4F20200016841F053
:1030100001010160006800F0010002900298FFE7E2
:103020000C200490022005900020069003200790B9
:10303000072008900020C4F2020004A9FEF708FF50
:103040003EE00998006844F60001C4F2000188429D
:1030500035D1FFE7FFE70020019043F64000C4F2BE
:103060000200016841F480210160006800F48020C2
:1030700001900198FFE7FFE70020009043F6300041
:10308000C4F20200016841F004010160006800F030
:10309000040000900098FFE74FF440600490022085
:1030A000059000200690032007900720089040F626
:1030B0000000C4F2020004A9FEF7CAFEFFE7FFE722
:1030C0000AB080BD80B58AB008900791ADF81A208B
:1030D000059300200290089890F84200202840F0C4
:1030E0008880FFE7079820B1FFE7BDF81A0020B9F4
:1030F000FFE701208DF827007FE008990020486451
:10310000089A222182F8421008990863FFF79EF876
:103110000290BDF81A0008998885BDF81A00089930
:10312000C88508988068B0F5805F09D1FFE70898E6
:10313000006928B9FFE7002004900798039004E095
:103140000798049000200390FFE7FFE70898C08DE0
:10315000002846D0FFE70898029B05996A4611604F
:103160002021002200F068FB40B1FFE708992020F1
:1031700081F8420003208DF827003EE0049858B9FA
:10318000FFE70898006840686FF35F2003990880A4
:103190000398023003901FE008988068B0F5805FC4
:1031A00008D0FFE70898806850B9FFE708980069E1
:1031B00030B9FFE70898006840680499087007E094
:1031C00008980068406800F07F0004990870FFE7E5
:1031D000049801300490FFE70899C88D0138C8852C
:1031E000B4E70899202081F8420000208DF82700DC
:1031F00003E002208DF82700FFE79DF827000AB0C2
:1032000080BD000080B58AB008900791ADF81A2003
:10321000059300200290089890F84100202840F083
:103220008180FFE7079820B1FFE7BDF81A0020B9B9
:10323000FFE701208DF8270078E008990020486416
:103240000899212081F84100FFF700F80290BDF8AD
:103250001A0008998884BDF81A000899C88408984B
:103260008068B0F5805F09D1FFE70898006928B948
:10327000FFE7002004900798039004E0079804906B
:1032800000200390FFE7FFE70898C08C78B3FFE7C2
:103290000898029B05996A4611608021002200F07F
:1032A000CBFA40B1FFE70899202081F841000320C4
:1032B0008DF827003AE0049858B9FFE70398008892
:1032C0006FF35F2008990968486003980230039003
:1032D00008E004980078089909684860049801306B
:1032E0000490FFE70899C88C0138C884CCE7089897
:1032F000029B05996A4611604021002200F09CFA69
:1033000040B1FFE70899202081F8410003208DF8A3
:1033100027000BE00899202081F8410000208DF85B
:10332000270003E002208DF82700FFE79DF8270023
:103330000AB080BDFFE7FEE780B540F26010C2F240
:10334000000043F20001C4F202010160FEF7D6FB67
:1033500018B1FFE7FEF772F9FFE780BD80B58EB0C8
:1033600000200D900C900B900A900990FFE7002030
:10337000089043F63000C4F20200016841F00401F5
:103380000160006800F0040008900898FFE7FFE77C
:103390000020079043F63000C4F20200016841F0BB
:1033A00080010160006800F0800007900798FFE747
:1033B000FFE70020069043F63000C4F202000168E7
:1033C00041F001010160006800F0010006900698DC
:1033D000FFE7FFE70020059043F63000C4F202004B
:1033E000016841F002010160006800F002000590F0
:1033F0000598FFE70020C4F202000390202101910C
:1034000000220292FEF70AFF02984FF40051099140
:103410004FF404110A910B9040F60000C4F2020030
:1034200009A90491FEF714FD019B029A03980499DF
:10343000099301230A930B920C92FEF709FD0EB03B
:1034400080BD000080B582B040F26810C2F200007A
:10345000019044F20041C4F2000101604FF4E131F7
:10346000416000218160C16001610C224261816183
:10347000C161FFF751FD18B1FFE7FEF7DFF8FFE785
:1034800002B080BD80B582B040F2B010C2F2000040
:10349000019044F60001C4F2000101604FF4E131F3
:1034A000416000218160C16001610C224261816143
:1034B000C161FFF731FD18B1FFE7FEF7BFF8FFE785
:1034C00002B080BDFFE7FEE7FFE7FEE788B00790A8
:1034D00006910592079800F0070004900498C0F147
:1034E0000700052803D3FFE70420019004E00498B7
:1034F000C0F107000190FFE70198039004980430A1
:10350000062803D8FFE70020009003E00498033862
:103510000090FFE70098029006980399012202FAB2
:1035200001F101390840029B984005999A40013AFF
:103530001140084308B07047704700007047000012
:1035400080B582B0009000980138B0F1807F03D33D
:10355000FFE70120019019E0009801384EF21401B4
:10356000CEF2000108604FF0FF300F2100F0DCF9CF
:103570004EF21801CEF20001002008604EF2100257
:10358000CEF20002072111600190FFE7019802B01E
:1035900080BD000080B5FEF75FFE80BD80B594B0B1
:1035A00007A83421FCF7B5FF002006900590049091
:1035B00003900290FFE70020019043F64000C4F220
:1035C0000200016841F080510160006800F0805005
:1035D00001900198FFE7FFE70020009047F200000C
:1035E000C4F200000168012262F38F3101600068BB
:1035F00000F4404000900098FFE70220079001216E
:103600000A9110210B910D9000220E920F914FF410
:10361000A8711091042111911290139007A8FFF73F
:10362000DFF818B1FFE7FEF709F8FFE70F20029077
:1036300002210391002004904FF4805205920690DD
:1036400002A8FEF7B9FE18B1FFE7FDF7F7FFFFE7A5
:1036500014B080BD4EF68851CEF20001086840F4E7
:10366000700008607047000084B00390FFE7FFE738
:103670000398006850E8030F20F490700290FFE771
:1036800002990398026842E803100028F0D1FFE78E
:10369000FFE7FFE7FFE70398006850E8050F20F019
:1036A00001000190FFE701990398026842E80510C4
:1036B0000028F0D1FFE7FFE70398006B012814D141
:1036C000FFE7FFE7FFE70398006850E8030F20F0EB
:1036D00010000090FFE700990398026842E8031089
:1036E0000028F0D1FFE7FFE7FFE70399202081F8EA
:1036F000420003990020086304B0704780B586B08B
:10370000059005980068006920F44050059A1168FA
:10371000D26810430861059988680B694A69C969CC
:10372000184310430843049005980068C06849F2A4
:103730000C6188430499084305990968C860059895
:103740000068406920F44070059A1168926910433E
:1037500048610598006841F20001C4F20101884205
:1037600009D0FFE70598006841F20041C4F2010169
:10377000884204D1FFE7FEF769FF039003E0FEF7FC
:1037800053FF0390FFE70598C069B0F5004F29D1BA
:10379000FFE703981921A0FB0101059A1368029322
:1037A00053685A00DB0FFCF7E9FD0299864648F2A0
:1037B0001F53C5F2EB13AEFB0320420910014FF07B
:1037C000640C02FB1CEC322202EBCC02A2FB0332A3
:1037D000F82303EA521300EB4300C2F342121044F1
:1037E000886026E003981921A0FB0101059A13685F
:1037F000019353689A009B0FFCF7C0FD0199844622
:1038000048F21F52C5F2EB12ACFB023043096420B0
:1038100003FB10CC322000EB0C10A0FB0202F020C6
:1038200000EA521000EB0310C2F343121044886008
:10383000FFE706B080BD000080B586B0DDF820C08F
:10384000049003918DF80B200193FFE70498006822
:10385000006803990840401AB0FA80F040099DF8CA
:103860000B1088424DD1FFE708980130002847D05F
:10387000FFE7FEF7EBFC0199401A0899884203D84C
:10388000FFE7089820B9FFE703208DF817003CE018
:1038900004980068C0684007002830D5FFE7039807
:1038A00080282CD0FFE70398402828D0FFE7049811
:1038B0000068006800F008010120B0EBD10F1DD1B5
:1038C000FFE7FFE700200090049800680068009080
:1038D00004980068406800900098FFE70498FFF79C
:1038E000C3FE049908204864FFE70499002081F88A
:1038F0004000FFE701208DF8170006E0FFE7FFE733
:10390000A4E700208DF81700FFE79DF8170006B028
:1039100080BD0000FFE7FEE74EF60C50CEF200003F
:103920000068C0F30220704782B08DF80700009154
:103930009DF9070000280AD4FFE7009800019DF9CF
:1039400007104EF20042CEF2000288540BE00098BD
:1039500000019DF8071001F00F014EF61452CEF24F
:1039600000028854FFE702B07047000083B0029065
:10397000029800F0070000904EF60C51CEF20001C4
:103980000868019001984FF6FF02104001900198DD
:10399000009A40EA02200022C0F2FA52104301903D
:1039A0000198086003B0704780B586B0059000208C
:1039B0008DF8130045F29220C0F6000000F09EFD45
:1039C00040F29800C2F2000001780131039103999E
:1039D000014451F8041C029103990439029A00F041
:1039E000CFFB10BBFFE745F20200C0F6000000F07D
:1039F00085FD059800780121019100F007FB0599EC
:103A00008878C978002200F0F7FB8DF813009DF844
:103A1000131045F26F30C0F6000000F06FFD019901
:103A20000DF1130000F09AFB08E044F6E370C0F6D5
:103A3000000000F063FD00F003FBFFE706B080BD6F
:103A400080B588B0079000208DF81B0045F2A400D7
:103A5000C0F6000000F052FD40F29800C2F20000F3
:103A60000178013105910599014451F8041C049134
:103A700005990439049A00F083FBC8BBFFE745F2BF
:103A80000200C0F6000000F039FD0798007801211F
:103A9000039100F0BBFA07988178C27845F245009F
:103AA000C0F6000000F02AFD039A0020C4F20200D4
:103AB000029020210191FEF7B1FB07998878C9781F
:103AC00000F048FC0199024602988DF81B20002264
:103AD000FEF7A4FB9DF81B1045F26F30C0F6000006
:103AE00000F00CFD03990DF11B0000F037FB08E01E
:103AF00044F6E370C0F6000000F000FD00F0A0FA0C
:103B0000FFE708B080BD000080B586B005900020BA
:103B1000ADF8120045F27900C0F6000000F0EEFCAE
:103B200040F29800C2F2000001780131039103993C
:103B3000014451F8041C029103990439029A00F0DF
:103B40001FFBF8B9FFE745F20200C0F6000000F0E5
:103B5000D5FC059800780221019100F057FA00F099
:103B60008FFCADF81200BDF8122045F22400C0F61B
:103B70000000114600F0C2FC01990DF1120000F0A6
:103B8000EDFA08E044F6E370C0F6000000F0B6FC81
:103B900000F056FAFFE706B080BD000080B584B0A3
:103BA000039045F25410C0F6000000F0A7FC40F26C
:103BB0009800C2F20000017801310291029901449B
:103BC00051F8041C019102990439019A00F0D8FAC5
:103BD000A0B9FFE745F20200C0F6000000F08EFC3D
:103BE000039800780821009100F010FA009940F243
:103BF0002400C2F2000000F0B1FA08E044F6E370DD
:103C0000C0F6000000F07AFC00F01AFAFFE704B0FA
:103C100080BD000080B586B0059000208DF81300AF
:103C200045F22910C0F6000000F068FC40F2980050
:103C3000C2F200000178013103910399014451F867
:103C4000041C029103990439029A00F099FAF8B918
:103C5000FFE745F20200C0F6000000F04FFC0598B7
:103C600000780121019100F0D1F900F0F7FB8DF807
:103C700013009DF8132045F2B430C0F60000114641
:103C800000F03CFC01990DF1130000F067FA08E028
:103C900044F6E370C0F6000000F030FC00F0D0F90C
:103CA000FFE706B080BD000080B586B0059045F204
:103CB0008010C0F6000000F021FC0598007801306B
:103CC000039005980399084450F8040C0290059855
:103CD00003990439029A00F053FAF8B9FFE745F264
:103CE0000200C0F6000000F009FC059800780121F0
:103CF000019100F08BF900F0AFFB8DF813009DF8F7
:103D0000132045F29630C0F60000114600F0F6FB95
:103D100001990DF1130000F021FA08E044F6E37078
:103D2000C0F6000000F0EAFB00F08AF9FFE706B0F9
:103D300080BD000080B586B00590002004908DF80D
:103D40000F0001208DF80E0045F20210C0F60000B1
:103D500000F0D4FB40F29800C2F20000017801317B
:103D600002910299014451F8041C0191029904390D
:103D7000019A00F005FAD8BBFFE745F20200C0F651
:103D8000000000F0BBFB05980078012100F03EF92F
:103D90000598D0F802000490049945F23430C0F63A
:103DA000000000F0ABFB049800F0D8FB98B9FFE7E7
:103DB0000DF10F00012100F0D1F9049801300490B9
:103DC0000498009044F68570C0F6000000F096FB61
:103DD000009880470BE044F66470C0F6000000F0E5
:103DE0008DFB0DF10E00012100F0B8F9FFE708E0AE
:103DF00044F6E370C0F6000000F080FB00F020F90C
:103E0000FFE706B080BD000080B58AB009900020B1
:103E10008DF823008DF822008DF821008DF8200008
:103E2000099800788DF82000099880798DF81F0096
:103E30000998D0F80200069009989DF82010405C7F
:103E40008DF8210045F2D400C0F6000000F056FBCA
:103E500040F29800C2F20000017801310591059905
:103E6000014451F8041C049105990439049A00F0A6
:103E700087F900284BD1FFE745F20200C0F60000A9
:103E800000F03CFB09980078012100F0BFF806998A
:103E900045F20D30C0F6000000F030FB069800F04F
:103EA0005DFB28BBFFE745F2D510C0F6000000F02F
:103EB00025FB0020C4F20200029020210191012282
:103EC0000392FEF7ABF90998073006999DF81F2079
:103ED00000F098FA0199024602988DF822200022FB
:103EE000FEF79CF903990DF1220000F037F90DE07F
:103EF00045F2FC10C0F6000000F000FB01218DF837
:103F000022100DF1220000F029F9FFE708E044F645
:103F1000E370C0F6000000F0F1FA00F091F8FFE75E
:103F20000AB080BD80B586B0059045F22520C0F668
:103F3000000000F0E3FA40F29800C2F200000178BD
:103F4000013103910399014451F8041C0291039932
:103F50000439029A00F014F9F0B9FFE745F20200C3
:103F6000C0F6000000F0CAFA05980078022101911D
:103F700000F04CF800F0E4FAADF81200BDF81210B1
:103F800045F24F30C0F6000000F0B8FA01990DF18B
:103F9000120000F0E3F808E044F6E370C0F6000019
:103FA00000F0ACFA00F04CF8FFE706B080BD00006E
:103FB00080B584B045F2AB10C0F6000000F09EFA68
:103FC00048F20000C0F6000000680190019945F237
:103FD000C320C0F6000000F091FA01980390039806
:103FE00080F3088848F20400C0F6000000680090E2
:103FF00000980290029945F2E120C0F6000000F01E
:104000007DFA0298804704B080BD000080B582B080
:104010008DF807008DF80610A5208DF804009DF896
:1040200006008DF8050040F26810C2F2000001A9F8
:1040300002224FF0FF33FFF7E5F802B080BD000029
:1040400080B582B07F208DF8070040F26810C2F280
:1040500000000DF1070101224FF0FF33FFF7D2F806
:1040600002B080BD80B586B000208DF81700FFE754
:1040700040F29800C2F200000390C821FCF727FA32
:10408000039940F26810C2F20000029001224FF042
:10409000FF330193FFF716F8019B039902980A7802
:1040A0008DF817209DF817200131FFF70BF80398C2
:1040B0004078513801460491092846D80499DFE830
:1040C00001F0050C131A21282F36443D40F29800C8
:1040D000C2F20000FFF7E8FD3EE040F29800C2F2B5
:1040E0000000FFF75BFD37E040F29800C2F20000ED
:1040F000FFF70AFD30E040F29800C2F20000FFF73F
:1041000089FD29E040F29800C2F20000FFF712FE9C
:1041100022E040F29800C2F20000FFF791FC1BE0A1
:1041200040F29800C2F20000FFF76EFE14E040F289
:104130009800C2F20000FFF737FC0DE040F2980053
:10414000C2F20000FFF7EEFE06E044F6AC70C0F6E7
:10415000000000F0D3F9FFE78AE7000080B582B0E5
:10416000019000910199BDF8002040F26810C2F260
:1041700000004FF0FF33FFF745F802B080BD0000AC
:1041800080B588B0069005910492FF20039000202E
:104190000290FFE702980599884212D2FFE706983D
:1041A0000299405C019040F26010C2F2000001A947
:1041B0000122FDF77DFC0390FFE702980130029099
:1041C000E8E740F26010C2F200000168886840F041
:1041D0000100886003980499884204D1FFE7002019
:1041E0008DF81F0003E001208DF81F00FFE79DF808
:1041F0001F0008B080BD000080B582B08DF80600B9
:104200008DF805108DF8042043F61440C4F2020026
:1042100000909DF8040068B3FFE7FDF75FFDFFE73E
:1042200043F60C40C4F202000068C003002801D528
:10423000FFE7F5E70099086820F000400860009962
:10424000086840F47F0008600099086840F00200A8
:104250000860FFE743F60C40C4F202000068C003A8
:10426000002801D5FFE7F5E7FDF72EFD00208DF8CA
:1042700007006BE09DF8050001282CD1FFE7FDF752
:104280002DFDFFE743F60C40C4F202000068C003B6
:10429000002801D5FFE7F5E70099086820F0004005
:1042A00008609DF806200099086820EA024008602E
:1042B0000099086840F002000860FFE743F60C40F0
:1042C000C4F202000068C003002801D5FFE7F5E74B
:1042D000FDF7FAFC36E09DF80500022831D1FFE732
:1042E000FDF7FCFCFFE743F60C40C4F20200006857
:1042F000C003002801D5FFE7F5E70099086840F002
:10430000004008600099086820F47F0008609DF86C
:1043100006200099086840EA024008600099086891
:1043200040F002000860FFE743F60C40C4F20200D0
:104330000068C003002801D5FFE7F5E7FDF7C4FCDE
:10434000FFE7FFE700208DF80700FFE79DF8070073
:1043500002B080BD80B588B08DF81E008DF81D10AC
:104360009DF81D00092804DBFFE704208DF81F00DD
:1043700043E09DF81E00FF2805D0FFE79DF81E00D2
:10438000072836DCFFE79DF81E00FF2803D1FFE772
:10439000012002901AE09DF81E00C0F108008DF87F
:1043A00002009DF81D009DF80210884205DDFFE720
:1043B0009DF802008DF81D00FFE7002002909DF897
:1043C0001E0004909DF81D000590FFE7012003905A
:1043D000FDF712FD0220069002A801A9FDF7CEFB11
:1043E0008DF80300FDF766FC9DF803008DF81F00B3
:1043F00003E004208DF81F00FFE79DF81F0008B0C0
:1044000080BD000080B586B0059004910392002025
:1044100000908DF80B00FDF7EFFC00980190FFE78E
:1044200001980399884210D2FFE70498019A8118F5
:104430000598825C00231846FDF774FC8DF80B008C
:10444000FFE7019801300190EAE7FDF733FC9DF8A2
:104450000B0006B080BD00001020704782B0002025
:104460008DF807004CF20000C1F6FF700090009834
:104470000068000A8DF807009DF8070002B0704739
:1044800081B042F20000CEF2040000686FF31F30EA
:10449000ADF80200BDF8020001B0704780B582B0EF
:1044A00000200190FDF7E6FEFFF778F8FEF756FFD3
:1044B000FEF7C8FFFEF740FFFEF7E4FF40F60000FE
:1044C000C4F202004FF40051FDF790FE48B9FFE737
:1044D00045F2D430C0F6000000F010F8FFF7C2FD3E
:1044E00008E045F20940C0F6000000F007F8FFF7C9
:1044F0005FFDFFE7019802B080BD000083B080B58A
:1045000097B01B931A921991169019A801901699B9
:10451000019A02A80090FBF7A9FF0098FBF7B8FFEB
:10452000009982B240F2B010C2F200004FF0FF33A7
:10453000FEF768FE17B0BDE8804003B0704700008A
:1045400080B588B0FDF7CAFB01A8FDF79BFBFDF71E
:10455000B1FBBDF80C0008B080BD000082B0009037
:104560000098B0F1005F0CD3FFE700984CF2000117
:10457000C2F20101884204D8FFE700208DF807004D
:104580003BE000984CF20001C2F2010188420BD3DB
:10459000FFE700980021C2F20201884204D8FFE739
:1045A00000208DF8070028E00098B0F1006F0CD3D0
:1045B000FFE700984FF6FF71C0F60701884204D864
:1045C000FFE700208DF8070017E0009844F2000193
:1045D000C4F2020188420CD3FFE7009845F20001C3
:1045E000C4F20201884204D8FFE700208DF80700DA
:1045F00003E001208DF80700FFE79DF8070002B0F7
:1046000070475FEA400C08BF91F0000F4FEA8C231F
:104610004FEAC12243EA51514FEA1C5018BF00F53E
:10462000F0404FEA300018BF41F000415FEA6C5C97
:1046300000F02980BCF1FF3F08BF40F08040704788
:10464000130C06BF12044FF0100C4FF0000C130EA9
:1046500004BF12020CF1080C130F04BF12010CF17D
:10466000040C930F04BF92000CF1020CD30F04BF93
:1046700052000CF1010C11464FF00002A0F11F0096
:10468000A0EB0C00704711F0004F08BF704731F0ED
:1046900000413FF4D5AF0B0C06BF09044FF0100CDE
:1046A0004FF0000C0B0E04BF09020CF1080C0B0FAD
:1046B00004BF09010CF1040C8B0F04BF89000CF13D
:1046C000020CCB0F04BF49000CF1010CCCF120030C
:1046D00022FA03F341EA030102FA0CF2A0EB0C0008
:1046E00000F101007047000023F07F4720F07F4C6D
:1046F00080EA030000F00040ACEB070303F57C53B5
:1047000003F1FF032DE9804909B44FEA144324EA79
:1047100003484FEA154B25EA0B4E0FF2042606EB31
:1047200013273E7803FB0667C7F5000707FB06F66D
:104730004FEAD64606F102064FEA543707FB066CED
:10474000CCF1005C4FEA1C472CEA074C0CFB06F549
:1047500007FB06F404EB15464FEA961649085FEA94
:10476000320234BF00204FF000404FEAD13706FB41
:1047700007FC4FEA1C4C0CFB0BF7D21B03FB0CF79E
:1047800061EB07010CFB0EF7B0EB074072EB174231
:104790000CFB08F734BFA2EB0742B2EB074261EB18
:1047A00017414FEA0C444FEA910706FB07FC4FEA1A
:1047B0001C4C0CFB0BF7B0EBC74072EB573203FB02
:1047C0000CF734BFA2EBC742B2EBC74261EB5731E3
:1047D0000CFB0EF7B0EBC70072EB57720CFB08F73F
:1047E00034BFA2EBC702B2EBC70261EB57714FEACD
:1047F000816141EA92114FEA826242EA90124FEAE5
:10480000806004EBCC04039F4FEAD13706FB07FC22
:104810004FEA1C4C0CFB0BF7D21B03FB0CF761EBB4
:1048200007010CFB0EF7B0EB074072EB17420CFBD5
:1048300008F734BFA2EB0742B2EB074261EB174126
:104840004FEA8C5504EB9C244FEA910706FB07FCCA
:104850004FEA1C4C0CFB0BF7B0EBC74072EB573226
:1048600003FB0CF734BFA2EBC742B2EBC74261EBCC
:1048700057310CFB0EF7B0EBC70072EB57720CFB15
:1048800008F734BFA2EBC702B2EBC70261EB577166
:104890004FEA816141EA92114FEA826242EA901244
:1048A0004FEA806015EB4C2544F100044FEAD13704
:1048B00006FB07FC4FEA1C4C0CFB0BF7D21B03FB5F
:1048C0000CF761EB07010CFB0EF7B0EB074072EB46
:1048D00017420CFB08F734BFA2EB0742B2EB0742CA
:1048E00061EB17414FEA813141EA92414FEA82324E
:1048F00042EA90424FEA80304FEA0C7615EB1C15E5
:1049000044F1000448EA03434EEA0B484FF0000E1E
:10491000B2EB080C71EB030724BF624639464EEB3D
:104920000E0E4FF0000B0018524149414BEB0B0BA0
:10493000B2EB080C71EB03077BF1000B24BF62465E
:1049400039464EEB0E0E4FF0000B00185241494114
:104950004BEB0B0BB2EB080C71EB03077BF1000B7D
:1049600024BF624639464EEB0E0E51EA020718BFCD
:1049700046F0010616EB0E7655F1000254F10001E7
:1049800003D5BDE88901BDE80088BDE88901BDE81F
:104990000048B619524141EB0101A3F101037047F0
:1049A00080807F7E7D7C7B7A79787776767574736C
:1049B000727171706F6E6E6D6C6C6B6A6A6968682B
:1049C000676666656464636362616160605F5F5EC1
:1049D0005E5D5D5C5C5B5B5A5A5959585857575637
:1049E000565555555454535352525251515050509C
:1049F0004F4F4F4E4E4D4D4D4C4C4C4B4B4B4A4AEE
:104A00004A49494948484847474747464646454531
:104A1000454444444443434343424242424141416A
:104A20009C46002B30D477002BD04FEA37071CB5BB
:104A300003B44FF010004FF01001BAF1000F06D090
:104A4000BCF1000FDCBF40F0080040F008014FF05F
:104A500000000FBCBDE810400BF1010BBBF1010FD2
:104A600008BF5FEA170722BF12F1010211F101012D
:104A70004FF0004143F1000300F0004043EA000022
:104A80007047F9D35708D0E746EA06464FEA16467C
:104A900013F1400F1FDD13F1200FDFBF16430A464D
:104AA000002120335B42BED0C3F1200746EA064610
:104AB0004FEA164602FA07F746EA070622FA03F219
:104AC000C3F1200701FA07F742EA070221FA03F1CE
:104AD0004FF00003A7E746EA020646EA06464FEA19
:104AE000164646EA0106BCBF46EA0646360C4FF0BB
:104AF00000034FF000024FF0000194E72DE9804CD5
:104B000070B49A46934691E8380007C831EA400CE1
:104B100048BF34EA430C03D5FFF7E6FDFFF780FFFB
:104B2000F0BCBDE8008C2DE9804C70B49A469346E9
:104B300091E8380007C810F0804F08BF13F0804F8D
:104B400003D100F005F8FFF76BFFF0BCBDE8008C67
:104B500020F07F4723F07F4C80EA030000F0004004
:104B600007EB0C03A3F57C53A3F1FE0392F0000FB7
:104B700000F0B38095F0000F00F077802DE9014937
:104B80004FEA114021EA00484FEA144624EA06475A
:104B900000FB06FC08FB06F607FB08F818EB0648C6
:104BA0004CEB164C00FB07F718EB07484CEB174093
:104BB0004FEA124B22EA0B4E4FEA154625EA06470A
:104BC0000BFB06FC0EFB06F607FB0EFE1EEB064E6D
:104BD0004CEB164C0BFB07F71EEB074E4CEB174B41
:104BE00018EB0B0840F1000018EB0E0B58EB000817
:104BF00040F100008F1A4FF000014FF000063CBF5B
:104C0000C943661B14BFB5EB040C00213CBFC9436C
:104C1000F61B4FEA174427EA04454FEA1C472CEAE3
:104C2000074C04FB076205FB07F70CFB05F616EBC8
:104C3000074642EB174204FB0CFC16EB0C4642EB1A
:104C40001C421BEB060658EB020241414EEA8E0E57
:104C500046EA9E0601D5BDE80189B619524141EBED
:104C60000101A3F10103BDE801894FEA144524EADB
:104C700005464FEA114721EA074C05FB07F406FBFE
:104C800007F70CFB06F111EB074144EB174405FB5A
:104C90000CFC11EB0C4144EB1C444FEA124722EA96
:104CA000074C05FB07F206FB07F70CFB06F616EBB5
:104CB000074642EB174205FB0CFC16EB0C4642EB99
:104CC0001C456A1854F1000148BF7047B61952419B
:104CD00041EB0101A3F10103704795F0000F37D0BC
:104CE0004FEA114221EA02464FEA144724EA074CF0
:104CF00002FB07F106FB07F70CFB06F414EB074475
:104D000041EB174102FB0CFC14EB0C4441EB1C4142
:104D10004FEA154725EA074C02FB07F506FB07F7A4
:104D20000CFB06F616EB074645EB174502FB0CFCA1
:104D300016EB0C4645EB1C42121951F1000148BF1D
:104D40007047B619524141EB0101A3F101037047CD
:104D50004FEA144524EA05464FEA114721EA074C79
:104D600005FB07F106FB07F70CFB06F212EB074207
:104D700041EB174105FB0CFC12EB0C4251EB1C41C3
:104D80004FF0000648BF7047921841EB0101A3F1B4
:104D90000103704703B401984100009850EAC12014
:104DA00018BF04204A0D18BF40F0010040F2FF7206
:104DB000B2EB515F08BF40F00200012808BF052098
:104DC00002B0704730380A2801D201207047002015
:104DD0007047000010B500290AD00878002807D0D5
:104DE00005487844FCF7E0FB002801D0002010BD06
:104DF0000248784410BD0000820600007A060000D8
:104E000010B500290AD00878002807D00548784452
:104E1000FCF7CAFB002801D0002010BD02487844EE
:104E200010BD0000720600006A060000F1EE100AD4
:104E30004FF6FF71C0F2C03120EA010040F040702F
:104E4000E1EE100A7047FBF7B7BFFCF7EBB80000C4
:104E500000000000000000003031323334353637B6
:104E600038394142434445464030580030313233AE
:104E700034353637383961626364656640307800AE
:104E80000400000800000000000000020001000013
:104E90001030313233343536373839616263646506
:104EA0006678700030313233343536373839414224
:104EB000434445465850000002400000000000A056
:104EC0000000000005400000000000C800000000D5
:104ED0000C4000000000409C000000001940000051
:104EE0000020BCBE0000000034400000BFC91B8E83
:104EF00000000004B5400000504BCFD06607E2CF61
:104F0000010000006C4100003E8251AADFEEA73490
:104F100001000000D9420000DCB5A0E23A301F9742
:104F2000FFFFFFFFB4450000FD25A0C8E9A3C14F66
:104F3000FFFFFFFFFF3F00000000008000000000B7
:104F4000FF3F0000000000800000000000000000A3
:104F50000000000001020304060708090000000029
:104F600001020304424C5F44454255475F4D53479D
:104F70003A474F206164647220696E76616C69649F
:104F80002021200A00424C5F44454255475F4D5363
:104F9000473A206A756D70696E6720746F20676F7D
:104FA000206164647265737321200A00424C5F447F
:104FB000454255475F4D53473A496E76616C696487
:104FC00020636F6D6D616E6420636F646520726530
:104FD0006365697665642066726F6D20686F7374AF
:104FE000200A00424C5F44454255475F4D53473AC3
:104FF000636865636B73756D206661696C20212140
:105000000A00424C5F44454255475F4D53473A635F
:105010006865636B73756D20737563636573732067
:1050200021210A00424C5F44454255475F4D53479A
:105030003A4D4355206964203A2025642025237881
:105040002021210A00424C5F44454255475F4D53A1
:10505000473A696E697469616C5F736563746F72F6
:10506000203A20256420206E6F5F6F66736563743D
:105070006F72733A2025640A00424C5F44454255E2
:10508000475F4D53473A626F6F746C6F616465722E
:105090005F68616E646C655F6765746369645F63B4
:1050A0006D640A00424C5F44454255475F4D53478B
:1050B0003A626F6F746C6F616465725F68616E6491
:1050C0006C655F666C6173685F65726173655F6371
:1050D0006D640A00424C5F44454255475F4D53475B
:1050E0003A626F6F746C6F616465725F68616E6461
:1050F0006C655F6D656D5F77726974655F636D6424
:105100000A00424C5F44454255475F4D53473A625F
:105110006F6F746C6F616465725F68616E646C65FB
:105120005F676F5F636D640A00424C5F44454255A0
:10513000475F4D53473A626F6F746C6F616465727D
:105140005F68616E646C655F6765747264705F63ED
:105150006D640A00424C5F44454255475F4D5347DA
:105160003A626F6F746C6F616465725F68616E64E0
:105170006C655F67657468656C705F636D640A0079
:10518000424C5F44454255475F4D53473A626F6F0B
:10519000746C6F616465725F68616E646C655F6793
:1051A00065747665725F636D640A00424C5F4445C6
:1051B0004255475F4D53473A626F6F746C6F61643D
:1051C00065725F6A756D705F746F5F757365725F2E
:1051D0006170700A00424C5F44454255475F4D5331
:1051E000473A2076616C6964206D656D207772693D
:1051F000746520616464726573730A00424C5F4495
:10520000454255475F4D53473A20696E76616C6958
:1052100064206D656D2077726974652061646472C5
:105220006573730A00424C5F44454255475F4D53D6
:10523000473A626F6F746C6F616465725F68616E2C
:10524000646C655F726561645F736563746F725FE0
:1052500070726F74656374696F6E5F737461747577
:10526000730A00424C5F44454255475F4D53473AED
:10527000626F6F746C6F616465725F68616E646C9D
:10528000655F6469735F72775F70726F7465637472
:105290000A00424C5F44454255475F4D53473A62CE
:1052A0006F6F746C6F616465725F68616E646C656A
:1052B0005F656E6469735F72775F70726F74656348
:1052C000740A00424C5F44454255475F4D53473A8C
:1052D0004D53502076616C7565203A202523780A5D
:1052E00000424C5F44454255475F4D53473A206169
:1052F00070702072657365742068616E646C65728D
:105300002061646472203A202523780A00424C5FB1
:1053100044454255475F4D53473A206D656D2077B0
:10532000726974652061646472657373203A202524
:1053300023780A00424C5F44454255475F4D53472E
:105340003A474F20616464723A202523780A00426C
:105350004C5F44454255475F4D53473A206E575284
:1053600050207374617475733A202523780A0042C3
:105370004C5F44454255475F4D53473A20666C6148
:105380007368206572617365207374617475733A14
:10539000202523780A00424C5F44454255475F4D23
:1053A00053473A424C5F564552203A202564202507
:1053B00023780A00424C5F44454255475F4D5347AE
:1053C0003A524450206C6576656C3A20256420255D
:1053D00023780A00424C5F44454255475F4D53478E
:1053E0003A425554544F4E2049532050524553533E
:1053F0004544202E2E20474F494E4720544F2042EF
:105400004C204D4F44450A0D00424C5F44454255E7
:10541000475F4D53473A425554544F4E204953200D
:105420004E4F542050524553534544202E2E204574
:105430005845435554494E472055534552204150F5
:10544000500A0D00905500080000002038000000B0
:1054500028020008C855000838000020C8070000CE
:10546000480200081C00000043000000F8FFFFFF96
:105470000C0000000E0000000F0000002E000000D5
:105480001001000043000000F8FFFFFF0040404013
:105490004040404040404141414141404040404007
:1054A00040404040404040404040404040050202B3
:1054B0000202020202020202020202020220202072
:1054C00020202020202020020202020202029090CE
:1054D00090909090101010101010101010101010CC
:1054E0001010101010101010020202020202888820
:1054F000888888880808080808080808080808082C
:105500000808080808080808020202024000000013
:10551000000000000000000000000000000000008B
:10552000000000000000000000000000000000007B
:10553000000000000000000000000000000000006B
:10554000000000000000000000000000000000005B
:10555000000000000000000000000000000000004B
:10556000000000000000000000000000000000003B
:10557000000000000000000000000000000000002B
:10558000000000000000000000000000000000001B
:105590000024F400000000000000000000000000F3
:1055A00000000000010000000000000000000000FA
:1055B00000000000515253545556575A0100000044
:0855C0001000000000000000D3
:04000005080001C529
:00000001FF
